:100000000C9464000C94CD160C94FA160C948C008D
:100010000C948C000C948C000C948C000C94711635
:100020000C948C000C948C000C948C000C948C0020
:100030000C948C000C94551D0C948C000C948C002A
:100040000C943D170C948C000C94DB120C940C1344
:100050000C948C000C948C000C948C000C948C00F0
:100060000C948C000C948C000200000000240027EB
:10007000002A0000000000250028002B00000000DE
:1000800000230026002900040404040404040402DC
:100090000202020202030303030303010204081025
:1000A00020408001020408102001020408102000F2
:1000B0000000070002010000030406000000000029
:1000C00000000000D113511411241FBECFEFD8E05F
:1000D000DEBFCDBF14E0A0E0B1E0EEEBFFE302C075
:1000E00005900D92AC33B107D9F715E0ACE3B4E05D
:1000F00001C01D92A930B107E1F710E0C8ECD0E0D3
:1001000004C02297FE010E94A61EC43CD107C9F775
:100110000E9427170C94DD1F0C940000EF92FF92B1
:100120000F931F937B018C0120E030E040E05FE4FF
:100130000E940A0487FD11C0C801B70120E030E029
:1001400040E05FE40E9431020E94CA049B01AC01BE
:10015000205030404040504806C0C801B7010E94BE
:10016000CA049B01AC01B901CA011F910F91FF9014
:10017000EF900895A0E0B0E0E0ECF0E00C94711E88
:10018000FC01EA018081823008F438C1DB019C91D6
:10019000923008F430C1843059F4943009F02EC103
:1001A000918111968C911197981709F021C126C160
:1001B000943009F420C19230B1F4823009F01EC1AC
:1001C000CA01AF0128E0DA010D90AD01DC010D920A
:1001D000CD012150C1F7DB0111968C9111979181CE
:1001E000892389830AC1823009F405C1C280D38082
:1001F000DB0112966D907C901397248135814681A6
:1002000057811496ED90FD900D911C911797C601A2
:10021000861997095C0197FF04C0AA24BB24A81A79
:10022000B90AB0E2AB16B1040CF061C01816190699
:100230006CF5370148010A2C04C096948794779492
:1002400067940A94D2F781E090E0A0E0B0E00A2C35
:1002500004C0880F991FAA1FBB1F0A94D2F70197E9
:10026000A109B1098E219F21A023B123EE24FF24EF
:100270008701E3940097A105B10519F4EE24FF244A
:100280008701E628F728082919293CC00097D1F1F1
:10029000CA0CDB1C39014A010A2C04C096948794CD
:1002A000779467940A94D2F781E090E0A0E0B0E000
:1002B0000A2C04C0880F991FAA1FBB1F0A94D2F7EB
:1002C0000197A109B10982239323A423B52321E037
:1002D00030E040E050E00097A105B10519F420E0BE
:1002E00030E0A90126293729482959290BC06C1467
:1002F0007D0424F4EE24FF24870104C0630120E080
:1003000030E0A9018181FB019181891709F445C081
:10031000882349F0D801C701821B930BA40BB50BAE
:100320009C01AD0104C02E193F09400B510B57FD34
:1003300004C01982DB82CA820BC081E08983DB8220
:10034000CA8250954095309521953F4F4F4F5F4F52
:100350002C833D834E835F830DC0880F991FAA1F96
:10036000BB1F8C839D83AE83BF838A819B81019752
:100370009B838A838C819D81AE81BF819C01AD016D
:1003800021503040404050402F3FEFEF3E07EFEF0D
:100390004E07EFE35E0708F30BC08983DB82CA8256
:1003A0002E0D3F1D401F511F2C833D834E835F83C5
:1003B00083E088832C813D814E815F8157FF1DC082
:1003C000DA01C90181709070A070B07056954795A0
:1003D00037952795822B932BA42BB52B8C839D834C
:1003E000AE83BF838A819B8101969B838A8305C0EC
:1003F000E2E0F1E003C0FB0101C0FE01CF01CDB797
:10040000DEB7EEE00C948D1EA0E2B0E0EAE0F2E090
:100410000C94791E69837A838B839C832D833E831E
:100420004F83588789E0E82EF12CEC0EFD1ECE019B
:100430000196B7010E94BC068E010F5E1F4FCE01D0
:100440000596B8010E94BC06C701B801AE01475E1F
:100450005F4F0E94BA000E94EE05A096E6E00C9461
:10046000951EA0E2B0E0E7E3F2E00C94791E698308
:100470007A838B839C832D833E834F8358878E01A1
:10048000075F1F4FCE010196B8010E94BC0691E1A3
:10049000E92EF12CEC0EFD1ECE010596B7010E944F
:1004A000BC068A8991E089278A8BC801B701AE0111
:1004B000475E5F4F0E94BA000E94EE05A096E6E0FC
:1004C0000C94951EA0E2B0E0E8E6F2E00C946D1EFC
:1004D00069837A838B839C832D833E834F835887E4
:1004E000CE010196BE01675F7F4F0E94BC06CE0120
:1004F0000596BE016F5E7F4F0E94BC0699859230C3
:1005000078F089898230C0F0943019F4823041F457
:10051000CBC0843019F4923079F4C6C0923051F4D3
:1005200081E02A859A89291709F480E08A87CE011B
:100530000996BCC0823051F481E02A859A89291736
:1005400009F480E08A8BCE014196B0C06D847E8430
:100550008F849888ED88FE880F89188DE0E2F0E09E
:1005600080E090E0DC01AA24BB24650120E030E0BB
:10057000A901B3016170707061157105D1F02E0D84
:100580003F1D401F511F15012601280E391E4A1E0E
:100590005B1E81E090E0A0E0B0E02E153F05400733
:1005A000510718F080E090E0DC01820D931DA41D3E
:1005B000B51DAA0CBB1CCC1CDD1C17FF09C061E0DB
:1005C000262E312C412C512CA228B328C428D52802
:1005D000319749F0EE0CFF1C001F111F9694879471
:1005E00077946794C6CF6B897C89EB85FC856E0F09
:1005F0007F1F6E5F7F4F7C8F6B8F61E0EA857A890A
:10060000E71709F460E06A8F6B8D7C8D10C0FC01E8
:10061000E170F070309729F05695479537952795FA
:100620005068B695A795979587956F5F7F4FB7FDF3
:10063000EECF0CC0880F991FAA1FBB1F57FD81600A
:10064000220F331F441F551F615070408030E0E07F
:100650009E07E0E0AE07E0E4BE0760F36B8F7C8F9F
:100660006FE7E62EF12C012D112DE822F9220A2345
:100670001B2360E4E616F1040105110561F487FD12
:100680000AC0211531054105510529F0805C9F4FB5
:10069000AF4FBF4F80788D8F9E8FAF8FB8A383E011
:1006A000898FCE01499602C082E091E00E94EE055A
:1006B000A096E2E10C94891EA8E1B0E0E2E6F3E046
:1006C0000C94751E69837A838B839C832D833E8370
:1006D0004F8358878E01075F1F4FCE010196B801E7
:1006E0000E94BC0681E1E82EF12CEC0EFD1ECE012D
:1006F0000596B7010E94BC069985923008F483C024
:100700008989823008F47BC02A853A8923272A8781
:10071000943011F0923021F4981709F06CC071C038
:10072000843039F41D861E861F86188A1C861B8617
:100730006AC0823019F484E0898765C08B859C8506
:100740002B893C89821B930B9C878B872D853E854B
:100750004F855889ED88FE880F89188D2E153F0525
:100760004007510738F4220F331F441F551F0197CC
:100770009C878B876FE170E0A12CB12CC12CA0E489
:10078000DA2E80E090E0DC012E153F05400751078E
:1007900040F08A299B29AC29BD292E193F09400B1D
:1007A000510BD694C794B794A794220F331F441FBC
:1007B000551F6150704041F76FE7E62EF12C012D77
:1007C000112DE822F9220A231B2360E4E616F10426
:1007D0000105110561F487FD0AC0211531054105A8
:1007E000510529F0805C9F4FAF4FBF4F80788D87B8
:1007F0009E87AF87B88B8E01075F1F4F04C08701AC
:1008000002C002E011E0C8010E94EE056896EAE02D
:100810000C94911EA8E1B0E0E0E1F4E00C94791EA4
:1008200069837A838B839C832D833E834F83588790
:100830008E01075F1F4FCE010196B8010E94BC06D2
:1008400081E1E82EF12CEC0EFD1ECE010596B701DC
:100850000E94BC068985823040F08989823028F068
:10086000C801B7010E94250701C08FEF6896E6E036
:100870000C94951EA8E1B0E0E0E4F4E00C94791E3D
:1008800069837A838B839C832D833E834F83588730
:100890008E01075F1F4FCE010196B8010E94BC0672
:1008A00081E1E82EF12CEC0EFD1ECE010596B7017C
:1008B0000E94BC068985823040F08989823028F008
:1008C000C801B7010E94250701C081E06896E6E0F3
:1008D0000C94951EA8E0B0E0E0E7F4E00C94791EDB
:1008E0007B018C0183E08983D801C7018827B7FD8C
:1008F00083959927AA27BB27282F8A83E114F1041F
:100900000105110519F482E0898337C08EE190E07A
:100910009C838B83222389F080E0E81680E0F80630
:1009200080E0080780E8180769F110950095F094B9
:10093000E094E11CF11C011D111DED82FE820F836C
:100940001887C801B7010E9494059C0121503040CE
:100950001216130694F4022E04C0EE0CFF1C001FA6
:10096000111F0A94D2F7ED82FE820F8318878EE161
:1009700090E0821B930B9C838B83CE0101960E9497
:10098000EE0504C060E070E080E09FEC2896E6E0B1
:100990000C94951EACE0B0E0E0EDF4E00C947D1E0C
:1009A00069837A838B839C83CE010196BE016B5F42
:1009B0007F4F0E94BC068D81823081F1823070F1C0
:1009C000843021F48E81882369F10AC02F81388513
:1009D00037FD24C06E812F3131053CF0662311F1C3
:1009E00020E030E040E050E821C08EE190E0821B42
:1009F000930B29853A854B855C8504C056954795B0
:100A0000379527958A95D2F7662381F050954095C2
:100A1000309521953F4F4F4F5F4F08C020E030E0A9
:100A2000A90104C02FEF3FEF4FEF5FE7B901CA0103
:100A30002C96E2E00C94991EA8E0B0E0E2E2F5E02A
:100A40000C94771E7B018C011A826115710581055A
:100A5000910519F482E089835FC083E089838EE188
:100A6000C82ED12CDC82CB82ED82FE820F831887C8
:100A7000C801B7010E949405FC013197F7FF3AC005
:100A8000AA27BB27AE1BBF0B21E030E040E050E0BF
:100A90000A2E04C0220F331F441F551F0A94D2F799
:100AA00021503040404050402E213F2140235123CF
:100AB00061E070E080E090E02115310541055105CD
:100AC00019F460E070E0CB0104C016950795F79427
:100AD000E794AA95D2F7E62AF72A082B192BED827C
:100AE000FE820F8318878EE190E08E1B9F0B9C8304
:100AF0008B8312C0309781F00E2E04C0EE0CFF1CC9
:100B0000001F111F0A94D2F7ED82FE820F8318870F
:100B1000CE1ADF0ADC82CB82CE0101960E94EE055E
:100B20002896E8E00C94931EAF92BF92CF92DF928A
:100B3000EF92FF920F931F937B018C0180E0E816E8
:100B400080E0F80681E0080780E0180758F4EFEF2E
:100B5000EE16F1040105110509F090F480E090E033
:100B6000DC0117C0F0E0EF16F0E0FF06F0E00F0741
:100B7000F1E01F0750F480E190E0A0E0B0E009C090
:100B800088E090E0A0E0B0E004C088E190E0A0E060
:100B9000B0E020E230E040E050E0281B390B4A0B87
:100BA0005B0B5701680104C0D694C794B794A7940F
:100BB0008A95D2F7D601C501865F9E4FFC018081E0
:100BC000281B310941095109C9011F910F91FF905B
:100BD000EF90DF90CF90BF90AF900895EF92FF928B
:100BE0000F931F93CF93DF93FC01248135814681BE
:100BF000578161818081823020F44061EFEFF0E025
:100C0000A3C0843009F49BC0823009F492C021153E
:100C100031054105510509F48FC00280F381E02DB3
:100C20008FEFE238F8070CF05AC0C2E8DFEFCE1BB6
:100C3000DF0BCA31D1056CF579018A010C2E04C095
:100C400016950795F794E7940A94D2F781E090E01F
:100C5000A0E0B0E00C2E04C0880F991FAA1FBB1F94
:100C60000A94D2F70197A109B10982239323A423FF
:100C7000B52321E030E040E050E00097A105B10548
:100C800019F420E030E0A9012E293F29402B512BF7
:100C900003C020E030E0A901DA01C9018F7790702C
:100CA000A070B07080349105A105B10539F427FF1B
:100CB00009C0205C3F4F4F4F5F4F04C0215C3F4F46
:100CC0004F4F5F4FE1E0F0E0203080E0380780E0F8
:100CD000480780E4580728F5E0E0F0E022C0E0385B
:100CE000F1056CF5E158FF4FDA01C9018F7790707B
:100CF000A070B07080349105A105B10539F427FFCB
:100D000009C0205C3F4F4F4F5F4F04C0215C3F4FF5
:100D10004F4F5F4F57FF05C056954795379527951D
:100D2000319687E056954795379527958A95D1F75F
:100D30000BC0E0E0F0E005C0E0E0F0E005C0EFEF60
:100D4000F0E020E030E0A9018E2F87958827879575
:100D5000942F9F77679566276795E695E22EA92FD2
:100D6000A82BFE2FF62B622F732F8A2F9F2FCDB724
:100D7000DEB7E6E00C94951EDC01FB012C91119688
:100D80003C91119712968C911297482F4F7750E013
:100D9000982F991F9927991F13966C911397862F57
:100DA000880F892B90E0661F6627661F6183009776
:100DB00039F5211531054105510511F482E029C0AD
:100DC00082E89FEF9383828367E0220F331F441FE3
:100DD000551F6A95D1F783E0808309C0220F331F26
:100DE000441F551F82819381019793838283203012
:100DF00080E0380780E0480780E4580778F320C097
:100E00008F3F910579F4211531054105510519F4FC
:100E100084E08083089544FF03C081E0808310C094
:100E200010820EC08F5790409383828383E080832B
:100E300087E0220F331F441F551F8A95D1F7506456
:100E400024833583468357830895FC01DB01908119
:100E5000923008F449C08C91823008F445C0943037
:100E600051F461818430B1F511962C91119730E0E5
:100E7000261B310941C0843021F0923041F4823088
:100E8000B1F111968C9111978823A1F12DC0618148
:100E9000823001F111968C9111976817D9F4228153
:100EA000338112968D919C9113978217930794F03A
:100EB00028173907BCF02481358146815781149663
:100EC0008D919D910D90BC91A02D82179307A40741
:100ED000B50718F4662341F00DC0281739074A07F3
:100EE0005B0728F4662331F021E030E005C020E004
:100EF00030E002C02FEF3FEFC901089521E332E057
:100F0000FC01318320830895CF93DF93EC0185E1C9
:100F100092E0998388838C819D81009739F0DC0170
:100F2000ED91FC910280F381E02D09958A819B81EE
:100F3000009739F0DC01ED91FC910280F381E02D06
:100F400009958E819F81009739F0DC01ED91FC912C
:100F50000280F381E02D099581E392E099838883F3
:100F6000DF91CF910895DC0112968D919C9113979A
:100F7000DC01ED91FC910484F585E02D099508953F
:100F80000895FC01738362830895FC01828193813B
:100F90000895FC01758364830895FC018481958123
:100FA0000895CF92DF92EF92FF920F931F93CF930A
:100FB000DF93EC018B018A819B81DC01ED91FC9137
:100FC0000288F389E02D6FEF0995EA80FB80D70155
:100FD000ED91FC91C288D388D801ED91FC910480F9
:100FE000F581E02DC8010995682FC701F601099523
:100FF000D801ED91FC916A817B810680F781E02D1B
:10100000C80109958A819B81DC01ED91FC910288E0
:10101000F389E02D6EEF0995DF91CF911F910F912C
:10102000FF90EF90DF90CF900895EF92FF920F9393
:101030001F93CF93DF938C01DC0116968D919C91C9
:101040001797DC01ED91FC910484F585E02D6EEF9E
:101050000995882309F44DC0F80186819781DC0148
:10106000ED91FC910680F781E02D09957C01C0E0AF
:10107000D0E00DC0F80186819781DC01ED91FC91F3
:101080000284F385E02D09958F3F29F02196CE1536
:10109000DF0584F32EC0F80186819781DC01ED9194
:1010A000FC910284F385E02D0995682FF801A48155
:1010B000B581ED91FC9111970480F581E02DCD0172
:1010C00070E00995EC010097B1F0E881F981D80151
:1010D00016966D917C9117970084F185E02D099506
:1010E000882349F4E881F9810280F381E02DCE0163
:1010F0000995C0E0D0E0CE01DF91CF911F910F9113
:10110000FF90EF900895CF93DF93EC0114C08A8194
:101110009B81DC01ED91FC91028CF38DE02D099512
:10112000682FAE81BF81ED91FC9111970084F1850C
:10113000E02DCD0109958A819B81DC01ED91FC9127
:101140000684F785E02D0995009709F7DF91CF9187
:101150000895EF92FF920F931F93CF93DF93EC01CB
:101160008C819D81DC01ED91FC910480F581E02D65
:1011700060E070E009958C010097B1F1E881F98198
:101180000288F389E02DCE01B80109958A819B81FF
:10119000DC01ED91FC910480F581E02D45E050E00B
:1011A00060E070E00995E881F9810488F589E02D17
:1011B000CE0109957C01009761F00E944C0FEC0173
:1011C000D701ED91FC910280F381E02DC7010995D3
:1011D00002C0C0E0D0E0D801ED91FC910280F38123
:1011E000E02DC801099502C0C0E0D0E0CE01DF913A
:1011F000CF911F910F91FF90EF90089521E332E07E
:10120000FC01318320830E9439170895CF93DF9327
:10121000EC010E948407CE010E943917DF91CF9123
:101220000895EF92FF920F931F93CF93DF93EC01FA
:10123000890185E192E0998388837D836C835B8358
:101240004A838CE090E00E9436177C01B8010E942E
:101250008910EE82FF82DF91CF911F910F91FF9055
:10126000EF90089529E233E0FC0131832083089553
:101270002FEF32E0FC0131832083089529E233E02F
:10128000FC013183208308952FEF32E0FC0131838C
:101290002083089580E090E00895089581E0089506
:1012A0002FEF32E0FC0131832083089581E090E04C
:1012B0000895CF93DF93DC01CB01EB01E881F98145
:1012C0000288F389E02D12966C910995DF91CF91F8
:1012D00008950F931F93CF93DF93EC018B01DB01F4
:1012E000ED91FC910480F581E02DCB0109958823D7
:1012F00079F4D801ED91FC910284F385E02DC801C9
:101300000995992787FD90959B838A8381E001C089
:1013100080E0DF91CF911F910F9108952FEF32E080
:10132000FC0131832083089582E090E00895CF93FB
:10133000DF93DC01CB01EB01E881F9810288F389BD
:10134000E02D12966C910995DF91CF9108950F933E
:101350001F93CF93DF93EC018B01DB01ED91FC91A7
:101360000480F581E02DCB010995882379F4D8011B
:10137000ED91FC910284F385E02DC8010995992730
:1013800087FD90959B838A8381E001C080E0DF9197
:10139000CF911F910F9108952FEF32E0FC0131831F
:1013A0002083089583E090E008950F931F93CF93D7
:1013B000DF93EC018B01DB01ED91FC910288F38955
:1013C000E02DCB016A810995D801ED91FC9102884D
:1013D000F389E02DC8016C810995DF91CF911F91B0
:1013E0000F9108950F931F93CF93DF93EC018B011F
:1013F000DB01ED91FC910480F581E02DCB01099595
:101400008823C1F4D801ED91FC910284F385E02D8D
:10141000C8010995992787FD90959B838A83D801F8
:10142000ED91FC910284F385E02DC80109958C8330
:1014300081E001C080E0DF91CF911F910F9108956D
:101440002FEF32E0FC0131832083089584E090E0A7
:101450000895CF93DF93DC01CB01EB01E881F981A3
:101460000288F389E02D12966C910995DF91CF9156
:1014700008950F931F93CF93DF93EC018B01DB0152
:10148000ED91FC910480F581E02DCB010995882335
:1014900079F4D801ED91FC910284F385E02DC80127
:1014A0000995992787FD90959B838A8381E001C0E8
:1014B00080E0DF91CF911F910F9108952FEF32E0DF
:1014C000FC0131832083089585E090E00895CF9357
:1014D000DF93DC01CB01EB01E881F9810288F3891C
:1014E000E02D12966C910995DF91CF9108950F939D
:1014F0001F93CF93DF93EC018B01DB01ED91FC9106
:101500000480F581E02DCB010995882359F4D80199
:10151000ED91FC910284F385E02DC80109958A8341
:1015200081E001C080E0DF91CF911F910F9108957C
:101530002FEF32E0FC0131832083089586E090E0B4
:10154000089587E090E00895089581E008952FEFD1
:1015500032E0FC0131832083089588E090E0089513
:10156000089581E008952FEF32E0FC01318320835C
:10157000089589E090E00895089581E008952FEF9F
:1015800032E0FC013183208308958AE090E00895E1
:10159000089508952FEF32E0FC01318320830895F0
:1015A0008BE090E00895089581E00895CF93DF9354
:1015B000EC0109C0E881F9810084F185E02DCE01BC
:1015C00060E070E009958A819B811816190694F3F2
:1015D000DF91CF9108952DE033E0FC01318320832A
:1015E0000E94D60A0895CF93DF93EC0185E892E03C
:1015F000998388838DE093E09B838A83CE01029652
:101600000E94D60A8FEF92E099838883DF91CF9171
:101610000895FC01828193810895AB01DC01ED9175
:10162000FC91119712966D917C9113970680F7812A
:10163000E02D09950895DC01ED91FC910688F7896C
:10164000E02D0995FC01828193810895FC016115CB
:10165000710521F40480F581E02D1FC08281938102
:1016600001976817790721F40680F781E02D15C0EE
:1016700077FD11C06817790774F40480F581E02DB7
:1016800081E090E004C00480F581E02D01966817A8
:101690007907CCF702C0E0E0F0E0CF010895FC014B
:1016A000848195810895FC01868197810895DC01EC
:1016B000ED91FC910480F581E02D099508952FEFBF
:1016C00032E0FC01318320830E9439170895CF93C3
:1016D000DF93EC018DE093E099838883CE010E9433
:1016E000D60ACE010E943917DF91CF91089529E2E1
:1016F00033E0FC01318320830E943917089529E2E9
:1017000033E0FC01318320830E94391708952FEFC5
:1017100032E0FC01318320830E94391708952FEFB6
:1017200032E0FC01318320830E94391708952FEFA6
:1017300032E0FC01318320830E94391708952FEF96
:1017400032E0FC01318320830E9439170895CF9342
:10175000DF93EC010E94F30ACE010E943917DF915A
:10176000CF9108952FEF32E0FC01318320830E9456
:10177000391708952FEF32E0FC01318320830E9456
:10178000391708952FEF32E0FC01318320830E9446
:10179000391708952FEF32E0FC01318320830E9436
:1017A000391708952FEF32E0FC01318320830E9426
:1017B000391708952FEF32E0FC01318320830E9416
:1017C000391708952FEF32E0FC01318320830E9406
:1017D000391708950F931F93CF93DF93EC0177FD93
:1017E0002EC08A819B81681779074CF5E881F981C1
:1017F0000688F789E02DCE0109958C010097F9F054
:10180000FC01A081B18184819581109721F015960A
:101810009C938E931497009719F0FC01B183A083D9
:10182000F80182819381009711F00E943917C80155
:101830000E9439178A819B8101979B838A83DF915C
:10184000CF911F910F9108956530710509F475C00E
:1018500066307105C4F46230710509F445C0633027
:10186000710544F46115710559F16130710509F094
:10187000E3C02EC06330710509F444C064307105C3
:1018800009F0DAC04EC06830710509F49BC06930B8
:1018900071054CF46630710509F45AC06730710562
:1018A00009F0CAC07BC06A30710509F49FC06A3074
:1018B00071050CF492C06B30710509F0BDC0B4C065
:1018C00082E090E00E9436179C0187EE92E081C092
:1018D00084E090E00E943617FC0189ED92E091834C
:1018E000808382E090E00BC084E090E00E94361795
:1018F000FC018BEC92E09183808389E090E09383FC
:10190000828390C085E090E00E943617FC018DEB49
:1019100092E09183808389E090E0938382831482B4
:1019200081C084E090E00E943617FC018FEA92E0CB
:10193000918380831382128275C083E090E00E94BD
:101940003617FC0181EA92E09183808312826AC09B
:101950008BE190E00E943617FC0183E992E09183CD
:10196000808320E030E0A9012283338344835583C0
:10197000268337834087518722873387448755875B
:1019800026873787408B518B228B338B448B558B2B
:10199000268B378B408F518F128E44C08AE090E0A7
:1019A0000E943617FC0185E892E0918380838DE0E8
:1019B00093E09383828315821482178216821186A4
:1019C000108630C082E090E00E9436179C0187E7C5
:1019D00092E0F9019183808331C082E090E00E941F
:1019E000361729E632E0FC013183208382E190E062
:1019F0000E943617FC018BE592E09183808320E002
:101A000030E0A901228333834483558326833783BF
:101A100040875187228733874487558726873787B2
:101A2000408B518B9F010AC082E090E00E943617E4
:101A30009C018DE492E0CDCF20E030E0C901089513
:101A4000CF92DF92EF92FF920F931F93CF93DF938A
:101A5000EC01D42EC52E8A819B81181619060CF034
:101A60007AC0E62EF72E8E159F050CF47C01F7FE4A
:101A700002C0EE24FF2486E090E00E9436178C011D
:101A8000DC0111961C921E9213961C921E921297C4
:101A900015961C921E9214978CE090E00E943617C7
:101AA000FC0120E030E0A90120833183428353838D
:101AB0002483358346835783208731874287538722
:101AC000D80113969C938E9312979601832F9C2D89
:101AD000DC018CE00D9001928150E1F7B70161507B
:101AE0007040BFEF6F3F7B0781F0E881F981068886
:101AF000F789E02DCE010995F80191838083DC01FF
:101B000015961C930E93149708C0EC81FD813097B5
:101B100011F0118300831D830C838A819B81E81659
:101B2000F90684F4E881F9810688F789E02DCE0171
:101B3000B7010995F80195838483DC0111961C9304
:101B40000E933FC0EE81FF81309711F0158304831F
:101B50001F830E8336C086E090E00E943617FC019A
:101B60001182108213821282158214829D838C83CB
:101B70008CE090E00E943617FC0120E030E0A901E3
:101B80002083318342835383248335834683578361
:101B90002087318742875387AC81BD8113969C9300
:101BA0008E931297AC019601832F922F2CE0FC01AB
:101BB0000190CF01FA010192AF012150C1F7BF831B
:101BC000AE838A819B8101969B838A83CE01DF91BC
:101BD000CF911F910F91FF90EF90DF90CF900895DC
:101BE0008F929F92BF92CF92DF92EF92FF920F93CC
:101BF0001F93DF93CF93CDB7DEB7EC970FB6F89472
:101C0000DEBF0FBECDBF8C017B01DC015A961C925A
:101C1000DB01ED91FC910680F781E02DCB01099568
:101C2000813391050CF48AC09DE0C92ED12CCC0ED5
:101C3000DD1E8DE3882E912C8C0E9D1EBB24D701BA
:101C4000ED91FC910284F385E02DC7010995F60121
:101C500081936F01B826E815F90589F7F8018285A7
:101C60009385A485B58589839A83AB83BC83828160
:101C70009381A481B5818D839E83AF83B88786814C
:101C80009781A085B18589879A87AB87BC87CE016C
:101C90000D96BE016F5F7F4F44E050E00E949111AE
:101CA000BE016B5F7F4F44E050E00E949111BE0186
:101CB000675F7F4F44E050E00E94911129813A8193
:101CC0004B815C81D8011A962D933D934D935C9383
:101CD0001D972D813E814F815885F80122833383E2
:101CE0004483558329853A854B855C8516962D93CB
:101CF0003D934D935C931997B801625F7F4F44E029
:101D000050E00E949111B8016E5E7F4F44E050E0B8
:101D10000E949111B8016A5E7F4F44E050E00E943A
:101D20009111D701ED91FC910284F385E02DC7015B
:101D300009958B1519F481E0F801828FD8015A9624
:101D40008C915A97EC960FB6F894DEBF0FBECDBFBC
:101D5000CF91DF911F910F91FF90EF90DF90CF9087
:101D6000BF909F908F9008959F92AF92BF92CF9215
:101D7000DF92EF92FF920F931F93DF93CF93CDB734
:101D8000DEB7EC970FB6F894DEBF0FBECDBF8C0167
:101D90007B01FC0182859385A485B58589839A831F
:101DA000AB83BC8382819381A481B5818D839E8323
:101DB000AF83B88786819781A085B18589879A8707
:101DC000AB87BC873DE0C32ED12CCC0EDD1EC601F7
:101DD000BE016F5F7F4F44E050E00E946E11BE0174
:101DE0006B5F7F4F44E050E00E946E11BE01675F61
:101DF0007F4F44E050E00E946E11B801625F7F4F58
:101E000044E050E00E946E11B8016E5E7F4F44E0E6
:101E100050E00E946E11B8016A5E7F4F44E050E0CE
:101E20000E946E1186012DE3A22EB12CAC0EBD1EB8
:101E300099246801D701ED91FC910288F389E02D86
:101E4000C701D8016D918D010995F6018081982611
:101E50000A151B0571F7D701ED91FC910288F389F2
:101E6000E02DC701692D0995EC960FB6F894DEBFF9
:101E70000FBECDBFCF91DF911F910F91FF90EF90DB
:101E8000DF90CF90BF90AF909F90089525EF32E004
:101E9000FC01318320830895FC01828193810895A0
:101EA000DC011296862F972FFC018CE001900D9299
:101EB0008150E1F70895CF92DF92EF92FF920F9356
:101EC0001F93FC0146875787608B718B028B138BA6
:101ED000248B358BC68AD78AE08EF18E1F910F91A5
:101EE000FF90EF90DF90CF9008954F925F926F92A6
:101EF0007F928F929F92AF92BF92CF92DF92EF929A
:101F0000FF920F931F93DF93CF93CDB7DEB7289740
:101F10000FB6F894DEBF0FBECDBF7C018B01DC0194
:101F2000ED91FC910684F785E02D0995D801ED919E
:101F3000FC910284F385E02DC80109953C01CC2475
:101F4000DD244DE0842E43E0942E5E010894A11C14
:101F5000B11C24C0D701ED91FC91448055809A8238
:101F60008982F801828193819C838B83848195810E
:101F70009E838D838681978198878F83C501B60163
:101F80000E941B0BBC01C701F20109959A8289824C
:101F9000C5010E94D60A0894C11CD11CC614D704DE
:101FA000CCF2C70128960FB6F894DEBF0FBECDBFA6
:101FB000CF91DF911F910F91FF90EF90DF90CF9025
:101FC000BF90AF909F908F907F906F905F904F9059
:101FD000089529E433E0FC0131832083089541E032
:101FE000FC01208531852115310509F040E0842F61
:101FF0000895FC01808591850895CF92DF92EF923C
:10200000FF920F931F93DF93CF930F92CDB7DEB75D
:102010006C01DC011296ED90FC90139718960D91CF
:102020001C9119970CC0D601ED91FC910284F385A7
:10203000E02DC601698309956981861741F0F60193
:10204000808591851816190674F380E001C081E03F
:10205000D6011396FC92EE92129719961C930E934A
:1020600018970F90CF91DF911F910F91FF90EF90F4
:10207000DF90CF900895EF92FF92CF93DF93EC0122
:10208000E881F9810084F185E02D0995CE01DF9189
:10209000CF91FF90EF900895EF92FF920F931F93CF
:1020A000CF93DF93EC018B01E881F9810284F38502
:1020B000E02D0995F8018083CE01DF91CF911F912A
:1020C0000F91FF90EF90089529E433E0FC013183F4
:1020D00020830E9439170895CF93DF93EC0183E3A7
:1020E00093E0998388838A859B850E94441F89E4B5
:1020F00093E099838883DF91CF910895CF93DF9305
:10210000EC010E946C10CE010E943917DF91CF9133
:102110000895CF93DF93EC01CB0123E333E03983C0
:1021200028831B821A821D821C827F836E831986FC
:1021300018860E94AA1E8A879B87DF91CF910895F7
:10214000CF93DF93FC01DB01EA018D919C91119704
:10215000268137818217930740F081E090E09983D0
:10216000888311961C921E920FC097FF0BC08FEFB1
:102170009FEF9983888386819781019711969C931D
:102180008E9302C0198218828085918526813781BD
:102190002817390718F43187208704C097FF02C039
:1021A00011861086DF91CF910895DF93CF9300D0F1
:1021B000CDB7DEB7FC0182819381248135818217FE
:1021C000930799F4208531851216130674F401964D
:1021D000938382831A821982BF016E5F7F4FCF0182
:1021E000AE014F5F5F4F0E94A0100F900F90CF91F4
:1021F000DF910895FF920F931F93DF93CF9300D049
:10220000CDB7DEB78C01DC0118962D913C91199762
:10221000121613062CF512968D919C9113971A960F
:10222000ED91FC911B97E80FF91FF0800196139632
:102230009C938E9312972150304019963C932E9385
:1022400018971A821982B8016E5F7F4FC801AE01DC
:102250004F5F5F4F0E94A010C8010E94D51001C0BF
:10226000FF248F2D0F900F90CF91DF911F910F9131
:10227000FF9008950F931F93DF93CF9300D0CDB7B6
:10228000DEB78C01DC011A96ED91FC911B97149638
:102290008D919C911597E80FF91F6083C8010E94EA
:1022A000D5101A821982F80184819581019695834F
:1022B000848380859185019691878087B8016C5FC2
:1022C0007F4FC801AE014F5F5F4F0E94A0100F907B
:1022D0000F90CF91DF911F910F910895CF93DF93CE
:1022E0009C01FC01A62FB72F80E090E00FC0ED010C
:1022F0006D91607F6083688170E062957295707FF8
:102300007627607F7627618301963296841795073A
:1023100074F3440F551F420F531FCA01DF91CF9131
:1023200008959C01FC01A62FB72F80E090E009C022
:1023300070817C93618162956F70672B6D930196BC
:10234000329684179507A4F3440F551F420F531F6D
:10235000CA01089525E833E0FC0131832083089504
:1023600025E833E0FC013183208308958FEF94E06A
:102370000E94F81D08958FEF94E00E94081E0895B2
:102380008FEF94E00E94F01D089584EC94E00E9489
:102390005112089584EC94E022E030E00E94371658
:1023A000089584EC94E022E030E00E94371608950E
:1023B00084EC94E04AE050E00E947715089584ECA4
:1023C00094E00E948712089584EC94E00E94B8146F
:1023D000089584EC94E00E9422120895CB01AC0190
:1023E000662757FD6095762F84EC94E00E94531386
:1023F0000895862F642F0E945E180895862F0E94EC
:1024000096180895862F642F0E943A180895CB01DC
:10241000BA010E94AB17089525E833E0FC0131832F
:1024200020830E943917089525E833E0FC013183A9
:1024300020830E94391708952FE533E0FC01318392
:1024400020830895FC0184859585FC01E05CFF4FA5
:10245000208131818E5B9F4FFC0180819181281BFF
:10246000390B2F733070C9010895FC01848595855F
:10247000FC01E05CFF4F40815181FC01EE5BFF4FAE
:10248000208131814217530741F00190F081E02D06
:10249000E80FF91F208130E002C02FEF3FEFC901A4
:1024A0000895FC0184859585FC01E05CFF4F408127
:1024B0005181FC01EE5BFF4F2081318142175307B0
:1024C00071F0A081B181A80FB91F2C9180819181F9
:1024D00001968F7390709183808330E002C02FEF5C
:1024E0003FEFC9010895DC011E968D919C911F97C5
:1024F000FC01E05CFF4F8E5B9F4F40815181DC010E
:102500002D913C91119742175307B9F708951F93E6
:10251000FC01162F26853785D901A05CBF4F8D9110
:102520009C91019660E470E00E94241ED901AE5B8C
:10253000BF4F4D915C91119784179507D1F3D90145
:10254000A05CBF4F0D90BC91A02DA20FB31F1C9398
:10255000A685B785A05CBF4F11969C938E93A689E4
:10256000B7892C9181E090E0058C02C0880F991FFB
:102570000A94E2F7282B2C9381E090E01F910895B4
:10258000FB01E05CFF4F208131812F5F3F4F2F73B4
:102590003070DB01AE5BBF4F4D915C9111972417FA
:1025A000350739F0A081B181A60FB71F8C93318315
:1025B0002083089508951F920F920FB60F92112451
:1025C0002F933F934F935F936F937F938F939F933B
:1025D000AF93BF93EF93FF938091C6006CE374E0D9
:1025E0000E94C012FF91EF91BF91AF919F918F9187
:1025F0007F916F915F914F913F912F910F900FBEFF
:102600000F901F90189584EC94E00E94221200977E
:1026100011F00E94DA1208951F920F920FB60F92D6
:1026200011242F933F935F936F937F938F939F9387
:10263000AF93BF93EF93FF932091C0043091C104F7
:102640008091C2049091C3042817390731F4809116
:10265000C1008F7D8093C10016C0E091C204F0914B
:10266000C304E058FB4F20818091C2049091C304C1
:10267000019660E470E00E94241E9093C30480934E
:10268000C2042093C600FF91EF91BF91AF919F913B
:102690008F917F916F915F913F912F910F900FBE1E
:1026A0000F901F901895DF92EF92FF920F931F9358
:1026B000CF93DF93EC017A018B01DD24D39440307A
:1026C00081EE580780E0680780E0780749F4DD2450
:1026D000EC89FD89108260E874E88EE190E00FC01B
:1026E000EC89FD8981E090E00E8C02C0880F991F73
:1026F0000A94E2F7808360E079E08DE390E0A8013E
:1027000097010E94371E215030404040504056955E
:1027100047953795279580E12030380710F0DD2068
:10272000B1F6E889F9893083EA89FB892083EE894B
:10273000FF89408181E090E09C010A8C02C0220F59
:10274000331F0A94E2F7422B4083EE89FF894081D0
:102750009C010B8C02C0220F331F0A94E2F7422B1C
:102760004083EE89FF8940819C010C8C02C0220FBE
:10277000331F0A94E2F7422B4083EE89FF892081C0
:102780000D8C02C0880F991F0A94E2F7809582236E
:102790008083DF91CF911F910F91FF90EF90DF9099
:1027A00008951092C7041092C60488EE93E0A0E04A
:1027B000B0E08093C8049093C904A093CA04B09376
:1027C000CB04E6ECF4E08BEA93E0929382938CE303
:1027D00094E09587848780E894E09787868785ECE6
:1027E00090E0918B808B84EC90E0938B828B80ECDB
:1027F00090E0958B848B81EC90E0978B868B86ECB8
:1028000090E0918F808F84E0828F83E0838F87E0D8
:10281000848F85E0858F81E0868F08958F929F92C7
:10282000AF92BF92CF92DF92EF92FF920F931F93DE
:10283000CF93DF934C017B0182E0A82EB12CA80C32
:10284000B91CC0E0D0E0CC24DD24F50161915F012A
:10285000C7014AE050E00E9434158C01C7016EE2C6
:102860000E949B14080F191FC00ED11E2196C33061
:10287000D10559F7C701F40165814AE050E00E9493
:102880003415C80ED91EC601DF91CF911F910F914B
:10289000FF90EF90DF90CF90BF90AF909F908F9080
:1028A00008958BEB93E09093E4048093E3041092FB
:1028B000E5041092E6041092E7041092E8040895EB
:1028C000CF92DF92EF92FF920F931F93CF93DF93FC
:1028D0006C017B018A01C0E0D0E00FC0D7016D918F
:1028E0007D01D601ED91FC910190F081E02DC601B2
:1028F0000995C80FD91F015010400115110571F736
:10290000CE01DF91CF911F910F91FF90EF90DF905B
:10291000CF900895DB010D900020E9F7AD01415003
:102920005040461B570BDC01ED91FC910280F38176
:10293000E02D09950895DC01ED91FC910190F08165
:10294000E02D099508950F931F93CF93DF93EC012A
:102950006DE00E949B148C01CE016AE00E949B14E2
:10296000080F191FC801DF91CF911F910F91089592
:102970000F931F93CF93DF93EC010E948A148C0175
:10298000CE010E94A314080F191FC801DF91CF9137
:102990001F910F9108958F929F92AF92BF92CF9205
:1029A000DF92EF92FF920F931F93DF93CF93CDB7F8
:1029B000DEB7A1970FB6F894DEBF0FBECDBF6C0196
:1029C000042FE52FCB01122F19A2223008F41AE0B0
:1029D00021E2E22EF12CEC0EFD1E812E9924AA2478
:1029E000BB2403C0022FE32FCA01602F7E2FA50155
:1029F00094010E94371E129F802D1124081B0894F9
:102A0000E108F1080A3014F4005D01C0095CF70127
:102A10000083211531054105510521F7C601B70194
:102A20000E948A14A1960FB6F894DEBF0FBECDBFE8
:102A3000CF91DF911F910F91FF90EF90DF90CF909A
:102A4000BF90AF909F908F9008952115310549F464
:102A5000DC01ED91FC910190F081E02D642F09954E
:102A600008950E94CB1408959A01462F50E060E02B
:102A700070E00E9425150895CF92DF92EF92FF92A9
:102A80000F931F93CF93DF93EC017A018B012115F4
:102A9000310541F4E881F9810190F081E02D642F46
:102AA00009951AC02A303105A9F477FF12C06DE2EA
:102AB0000E949B146C0144275527BA014E195F09E7
:102AC000600B710BCE012AE00E94CB14C80ED91EF8
:102AD00004C02AE00E94CB146C01C601DF91CF91A3
:102AE0001F910F91FF90EF90DF90CF9008959A0182
:102AF000FB01AF01662757FD6095762F0E943C15BC
:102B000008956F927F929F92AF92BF92CF92DF9281
:102B1000EF92FF920F931F93CF93DF933C017A01C3
:102B20008B01C22ECB01BA0120E030E0A9010E9446
:102B30003A0487FF0AC0C3016DE20E949B14EC01B6
:102B400017FB109517F9109502C0C0E0D0E0DD2406
:102B500050E040E030E02FE311C0DA01F9016B2FC3
:102B6000742F8F2F922F20E030E040E251E40E943A
:102B70005C03562F472F382F292FD394DC1468F38A
:102B8000C801B701DA01F9012B2F342F4F2F5E2F27
:102B90000E9404025B01F82E992E7B2D0E948E006C
:102BA000162FD72EE82E092F0E941C059B01AC0181
:102BB0006A2D7B2D8F2D992D0E943102962EA72EE6
:102BC000B82EF92EC301412F5D2D6E2D702F2AE0F6
:102BD00030E00E942515C80FD91FCC20B9F1C301E0
:102BE00060E071E00E948A14C80FD91F2FC0692DC0
:102BF0007A2D8B2D9F2D20E030E040E251E40E94A1
:102C00006202D62EB72EA82E992E0E94CA047B01EE
:102C10000027F7FC0095102FC301B801A7012AE097
:102C200030E00E943C15C80FD91FC801B7010E94AF
:102C30006A049B01AC016D2D7B2D8A2D992D0E947C
:102C40003102962EA72EB82EF92ECA94CC2079F6F2
:102C5000CE01DF91CF911F910F91FF90EF90DF9008
:102C6000CF90BF90AF909F907F906F9008950E94FB
:102C700081150895813041F0813018F08230D1F40F
:102C800009C010926E00089580916F008D7F80932F
:102C90006F000895809170008D7F8093700081E0B7
:102CA0008093B0008091B100887F84608093B100F0
:102CB0001092B30008951F93182F8091100281176E
:102CC00039F4E8E6F0E084919FEF9093100201C0A0
:102CD0008FEF0E943A16812F60E00E945E181F91CC
:102CE00008951F920F920FB60F9211242F933F93C6
:102CF0004F935F936F937F938F939F93AF93BF9304
:102D0000EF93FF938091E9049091EA04A091EB0482
:102D1000B091EC040097A105B10551F1E091ED04EB
:102D2000F091EE0480819091EF0489278083809157
:102D3000E9049091EA04A091EB04B091EC04181618
:102D400019061A061B06C4F48091E9049091EA045E
:102D5000A091EB04B091EC040197A109B109809313
:102D6000E9049093EA04A093EB04B093EC0404C04C
:102D7000809110020E945B16FF91EF91BF91AF917D
:102D80009F918F917F916F915F914F913F912F9183
:102D90000F900FBE0F901F9018951F920F920FB6B5
:102DA0000F9211242F933F934F935F936F937F93D1
:102DB0008F939F93AF93BF93EF93FF938091F00412
:102DC0009091F104009729F0E091F004F091F10462
:102DD0000995FF91EF91BF91AF919F918F917F9155
:102DE0006F915F914F913F912F910F900FBE0F9078
:102DF0001F9018951F920F920FB60F9211242F93C8
:102E00003F934F935F936F937F938F939F93AF9372
:102E1000BF93EF93FF938091F2049091F304009796
:102E200029F0E091F204F091F3040995FF91EF91FC
:102E3000BF91AF919F918F917F916F915F914F91D2
:102E40003F912F910F900FBE0F901F901895CF9329
:102E5000DF930E94D2170E94C018C3E0D3E10E9402
:102E600053192097E1F30E940313F9CF0E94AA1E81
:102E700008950E94441F089508951F920F920FB65F
:102E80000F9211242F933F938F939F93AF93BF93F0
:102E90008091F8049091F904A091FA04B091FB0498
:102EA0003091FC040196A11DB11D232F2D5F2D37FC
:102EB00020F02D570196A11DB11D2093FC04809395
:102EC000F8049093F904A093FA04B093FB04809162
:102ED000F4049091F504A091F604B091F7040196E2
:102EE000A11DB11D8093F4049093F504A093F60402
:102EF000B093F704BF91AF919F918F913F912F9124
:102F00000F900FBE0F901F9018959FB7F8942091C7
:102F1000F4043091F5044091F6045091F70486B51D
:102F2000A89B06C08F3F21F02F5F3F4F4F4F5F4F51
:102F30009FBF542F432F322F2227280F311D411DB1
:102F4000511D82E0220F331F441F551F8A95D1F770
:102F5000B901CA010895EF92FF920F931F93CF9387
:102F6000DF937B018C010E948517EB010FC00E944B
:102F700085176C1B7D0B83E0683E780738F008945A
:102F8000E108F10801091109C851DC4FE114F1040D
:102F90000105110561F7DF91CF911F910F91FF900E
:102FA000EF900895789484B5826084BD84B5816083
:102FB00084BD85B5826085BD85B5816085BDEEE641
:102FC000F0E0808181608083E1E8F0E01082808120
:102FD00082608083808181608083E0E8F0E080818E
:102FE00081608083E1EBF0E0808184608083E0EBAE
:102FF000F0E0808181608083EAE7F0E08081846096
:1030000080838081826080838081816080838081F1
:10301000806880831092C1000895833071F08430FD
:1030200028F48130A1F0823021F514C08630B1F04F
:103030008730D1F08430E9F404C0809180008F772C
:1030400003C0809180008F7D80938000089584B5B7
:103050008F7702C084B58F7D84BD08958091B000C4
:103060008F778093B00008958091B0008F7D80931A
:10307000B000089590E0FC01E556FF4F2491FC015B
:10308000E957FF4FE491EE23C1F0F0E0EE0FFF1F90
:10309000E759FF4F85919491DC01662341F49FB776
:1030A000F8948C91209582238C939FBF08959FB7AD
:1030B000F8948C91822B8C939FBF08950F931F934C
:1030C000DF93CF930F92CDB7DEB7282F30E0F90111
:1030D000E155FF4F8491F901E556FF4F14912957AF
:1030E0003F4FF90104910023D9F0882321F069832F
:1030F0000E940D186981E02FF0E0EE0FFF1FED58E0
:10310000FF4F85919491DC019FB7F894662321F4D9
:103110008C911095812302C08C91812B8C939FBF41
:103120000F90CF91DF911F910F9108950F931F93EF
:10313000282F30E0F901E155FF4F8491F901E55660
:10314000FF4F049129573F4FF9011491112391F03A
:10315000882311F00E940D18E12FF0E0EE0FFF1F01
:10316000E358FF4F85919491DC018C91802321E0FD
:1031700030E011F420E030E0C9011F910F91089573
:103180004F925F926F927F928F929F92AF92BF9277
:10319000CF92DF92EF92FF920F931F93DF93CF9323
:1031A000CDB7DEB767970FB6F894DEBF0FBECDBFC1
:1031B0008AE090E00E9436178C010E94A21982E0FA
:1031C00090E00E943617B82EA92E0E941C1292E0A1
:1031D000492E512C4C0E5D1EC2010E94FB1C8CE03E
:1031E000682E712C6C0E7D1EC3010E94081D4E01BD
:1031F0000894811C911CC4010E94151D8FE190E070
:103200000E943617D82EC92EB201A3019401EB2CCF
:10321000FA2C0E94171DC4010E94161DC3010E94B2
:10322000141DC2010E94071D82E090E00E94361723
:10323000BC016E8B7F8B0E94460F88E090E00E945D
:103240003617182F092F6E897F894B2D5A2D24E6AA
:1032500030E00E9411098D2D9C2D6B2D7A2D412F70
:10326000502F0E946F1B0E94981BDC01ED91FC9176
:103270000284F385E02D099567960FB6F894DEBFBA
:103280000FBECDBFCF91DF911F910F91FF90EF90B7
:10329000DF90CF90BF90AF909F908F907F906F9076
:1032A0005F904F9008950E94981BDC01ED91FC9176
:1032B0000484F585E02D099508952FEC33E0FC0199
:1032C0003183208308959C012E5F3F4FC9010895EB
:1032D00020E030E0A901FC01208331834283538345
:1032E00024833583468357832087318742875387DA
:1032F0000895CF93DF93EC0181EC93E09983888369
:103300008DE093E09B838A83CE0102960E94D60AC9
:103310008FEC93E099838883DF91CF9108952FEC10
:1033200033E0FC01318320830E9439170895CF9345
:10333000DF93EC010E947919CE010E943917DF91C9
:10334000CF910895FC0181EC93E0918380838DE01F
:1033500093E09383828315821482178216821186EA
:103360001086089502960E94750F089525EF33E0A8
:10337000FC01318320830895CF93DF93EC018DED21
:1033800093E0998388838A819B81009739F0DC01DF
:10339000ED91FC910280F381E02D099585EF93E09A
:1033A00099838883DF91CF910895FC018281938175
:1033B0000895FC01848195810895FC01868197819F
:1033C00008958091FD049091FE04009781F0DC0146
:1033D000ED91FC910084F185E02D0995009739F07D
:1033E000DC01ED91FC910688F789E02D099508959F
:1033F000CF93DF93DC01ED91FC910480F581E02D0A
:103400000995EC01E881F9810680F781E02D6DE0F6
:1034100041E00995E881F9810284F385E02DCE0130
:103420006DE041E00995E881F9810484F585E02D9E
:10343000CE0160E875E20995E881F981048CF58D8B
:10344000E02DCE0148E853E160E070E00995E881A5
:10345000F981068CF78DE02DCE0161EE79E12FEF39
:103460003FEF4FEF5FEF0995DF91CF910895FC019A
:10347000758364830895FC01738362830895FC015E
:1034800077836683089525EF33E0FC013183208341
:103490000E9439170895CF93DF93EC010E94BC1965
:1034A000CE010E943917DF91CF9108954F925F921C
:1034B0006F927F928F929F92AF92BF92CF92DF9244
:1034C000EF92FF920F931F93DF93CF93CDB7DEB7A9
:1034D00060970FB6F894DEBF0FBECDBF4C01DC0184
:1034E000ED91FC910480F581E02D09958C01F401AA
:1034F00084819581DC01ED91FC910688F789E02DAE
:103500000995D801ED91FC910480F581E02DC80169
:1035100048EE53E060E070E00995F4018681978100
:10352000DC01ED91FC910088F189E02D0995D8012D
:10353000ED91FC911197009709F4B3C00284F385D3
:10354000E02DC8016DE041E00995F4018481958189
:10355000DC01ED91FC910480F581E02D60E070E0EC
:1035600009958C01F40184819581DC01ED91FC9138
:103570000480F581E02D63E070E0099501151105E7
:1035800009F496C07C01009709F492C0F401868189
:103590009781DC01ED91FC910684F785E02D09957A
:1035A000DC01ED91FC910480F581E02D66E070E096
:1035B00009955C01009709F468C0D801ED91FC9170
:1035C0000284F385E02DC80109959B01AC01D80167
:1035D000ED91FC910484F585E02DC8012F87388B8F
:1035E0004D875E8709952B013C01D801ED91FC9137
:1035F0000684F785E02DC80109952F8538894D850A
:103600005E8529833A834B835C834D825E826F8221
:10361000788669877A878B879C87C501BE016F5F33
:103620007F4F0E94500FD701ED91FC910284F385EA
:10363000E02DC70109952B013C01D701ED91FC91CB
:103640000484F585E02DC70109958B019C01D70104
:10365000ED91FC910684F785E02DC7012F87388B0B
:1036600009956B017C01C501B301A2012F85388941
:103670000E945B0FF40186819781DC01ED91FC9142
:103680000288F389E02DB5010995A114B10481F0F8
:10369000D501ED91FC910280F381E02DC5010995E2
:1036A00007C00284F385E02DC8016DE040E0099574
:1036B00060960FB6F894DEBF0FBECDBFCF91DF91FD
:1036C0001F910F91FF90EF90DF90CF90BF90AF9040
:1036D0009F908F907F906F905F904F900895EF92A2
:1036E000FF920F931F93CF93DF938C01EB017A012D
:1036F0008091FD049091FE04009799F488E090E099
:103700000E943617FC018DED93E091838083D38373
:10371000C28315830483F782E682F093FE04E0936C
:10372000FD04DF91CF911F910F91FF90EF900895CD
:103730008091FD049091FE04089523E234E0FC01A1
:10374000318320830895CF93DF93EC0187E094E0E9
:10375000998388838A819B81009739F0DC01ED9100
:10376000FC910280F381E02D09958C819D81009769
:1037700039F0DC01ED91FC910280F381E02D099597
:103780008E819F81009739F0DC01ED91FC910280E0
:10379000F381E02D099588859985009739F0DC0142
:1037A000ED91FC910280F381E02D09958A859B853E
:1037B000009739F0DC01ED91FC910280F381E02D5E
:1037C00009958C859D85009739F0DC01ED91FC9180
:1037D0000280F381E02D09958E859F85009739F051
:1037E000DC01ED91FC910280F381E02D099588893F
:1037F0009989009739F0DC01ED91FC910280F38109
:10380000E02D09958A899B89009739F0DC01ED91BB
:10381000FC910280F381E02D09958C899D890097A8
:1038200039F0DC01ED91FC910280F381E02D0995E6
:1038300083E294E099838883DF91CF910895FC011E
:1038400062307105B9F0633071053CF461157105A2
:1038500059F061307105B9F40AC06330710569F03F
:103860006430710581F40CC0228133810EC0248143
:1038700035810BC02681378108C02085318505C080
:103880002285338502C020E030E0C901089580E040
:1038900090E00895FC016130710589F06230710596
:1038A00024F46115710541F013C06230710551F0C7
:1038B0006330710569F409C0248535850BC0268500
:1038C000378508C02289338905C02489358902C01B
:1038D00020E030E0C9010895FC018789908D0895AA
:1038E00080E00895FC01818D928D0895DC015B9646
:1038F0008D919C915C97DC01ED91FC910480F581A8
:10390000E02D09950895CF93DF93EC01888999897B
:10391000DC01ED91FC910284F385E02D0995E889A5
:10392000F989A081B18116962D913C911797CF010D
:10393000F9010995882399F381E0DF91CF910895EA
:10394000CF93DF93EC0188899989DC01ED91FC919B
:103950000484F585E02D0995E889F989A081B18174
:1039600016962D913C911797CF01F901099588235F
:1039700099F3DF91CF910895CF93DF93EC018C8978
:103980009D89DC01ED91FC910284F385E02D40E0FE
:1039900050E060E87FE309958E859F85DC01ED911D
:1039A000FC910284F385E02D40E050E060EF71EC83
:1039B00009958E859F85DC01ED91FC910284F3854C
:1039C000E02D40E050E0BA010995DF91CF910895D4
:1039D00023E234E0FC01318320830E9439170895EB
:1039E000CF93DF93EC010E94A31BCE010E943917F5
:1039F000DF91CF910895FC0111821082138212820F
:103A000015821482178216821186108608950895F1
:103A1000FC01118210821382128215821482178295
:103A20001682118610860895089508950895EF92DC
:103A3000FF920F931F93CF93DF93FC0187E094E0F5
:103A400091838083138212821582148217821682D8
:103A5000118610861386128615861486178616869A
:103A6000118A108A138A128A158A148AEF01229603
:103A7000862F972FDC018AE00D9009928150E1F7A3
:103A8000EF012C96842F952FDC018AE00D9009928E
:103A90008150E1F7148F038FF68EE58EDF91CF9181
:103AA0001F910F91FF90EF9008951F920F920FB604
:103AB0000F9211242F933F934F935F936F937F93B4
:103AC0008F939F93AF93BF93EF93FF93E091030581
:103AD000F09104050995FF91EF91BF91AF919F91EE
:103AE0008F917F916F915F914F913F912F910F90A7
:103AF0000FBE0F901F901895FC01A3E0440F551FB7
:103B0000661F771FAA95D1F7403080E0580781E003
:103B1000680780E0780714F481E010C033E0759501
:103B20006795579547953A95D1F7403080E058070B
:103B300081E0680780E078071CF482E0828339C066
:103B400023E075956795579547952A95D1F74030AD
:103B500080E0580781E0680780E0780714F483E08C
:103B6000EDCF92E075956795579547959A95D1F762
:103B7000403080E0580781E0680780E0780714F45F
:103B800084E0DCCF82E075956795579547958A95D7
:103B9000D1F7403080E0580781E0680780E078077F
:103BA00014F485E0CBCF85E082834FEF5FEF60E0D8
:103BB00070E08FB78383F8945183408350938700DC
:103BC0004093860083818FBF80918100887F80939E
:103BD0008100809181009281892B809381000895DA
:103BE0001092800020E1209381000E947C1D0895A6
:103BF000EFE6F0E080818E7F80830895E1E8F0E0D9
:103C00002081DC0112968C911297282B2083089535
:103C10000F931F93CF93DF93EC018B01BA01A9019E
:103C2000141615061606170614F40E947C1D1D8333
:103C30000C8381E080936F00CE010E94FE1DDF9116
:103C4000CF911F910F91089597FB092E07260AD057
:103C500077FD04D02ED006D000201AF4709561951F
:103C60007F4F0895F6F7909581959F4F0895A1E2B3
:103C70001A2EAA1BBB1BFD010DC0AA1FBB1FEE1FE6
:103C8000FF1FA217B307E407F50720F0A21BB30B31
:103C9000E40BF50B661F771F881F991F1A9469F7AD
:103CA00060957095809590959B01AC01BD01CF0109
:103CB0000895AA1BBB1B51E107C0AA1FBB1FA61773
:103CC000B70710F0A61BB70B881F991F5A95A9F7C5
:103CD00080959095BC01CD0108952F923F924F920F
:103CE0005F926F927F928F929F92AF92BF92CF928C
:103CF000DF92EF92FF920F931F93CF93DF93CDB795
:103D0000DEB7CA1BDB0B0FB6F894DEBF0FBECDBF0C
:103D100009942A88398848885F846E847D848C84DD
:103D20009B84AA84B984C884DF80EE80FD800C81E6
:103D30001B81AA81B981CE0FD11D0FB6F894DEBFC9
:103D40000FBECDBFED010895EE0FFF1F0590F4915A
:103D5000E02D0994CF93DF938230910510F482E037
:103D600090E0E0910705F091080540E050E020E088
:103D700030E026C06081718168177907E0F068172C
:103D8000790781F4828193812115310531F0D901C0
:103D900013969C938E9312972BC090930805809353
:103DA000070526C04115510519F06417750718F469
:103DB000AB01E901DF019F0172816381E72FF62FDB
:103DC0003097C1F64115510501F1481B590B44309C
:103DD000510580F412968D919C911397209719F0BC
:103DE0009B838A8304C09093080580930705FD0197
:103DF000329646C0FD01E40FF51F81939193425026
:103E0000504011965C934E933BC020910505309134
:103E100006052115310541F420910C0230910D0267
:103E2000309306052093050520910E0230910F0274
:103E30002115310541F42DB73EB740910A0250914A
:103E40000B02241B350BE0910505F0910605E217E6
:103E5000F307A0F42E1B3F0B2817390778F0AC01AD
:103E60004E5F5F4F2417350748F04E0F5F1F50938A
:103E70000605409305058193919302C0E0E0F0E0D0
:103E8000CF01DF91CF910895CF93DF93009709F48D
:103E900091C0FC01329713821282609107057091E4
:103EA00008056115710581F420813181280F391FC2
:103EB00080910505909106058217930799F5F09377
:103EC0000605E093050576C0DB0180E090E002C0C6
:103ED000CD01D901AE17BF0748F412962D913C9140
:103EE000139721153105A1F7CD0121C0B383A2831A
:103EF000EF01499159919E01240F351FA217B30775
:103F000079F42D913C911197240F351F2E5F3F4F6F
:103F10003183208312962D913C9113973383228312
:103F2000009729F4F0930805E093070543C0DC01EE
:103F30001396FC93EE9312974D915D91A40FB51FCC
:103F4000EA17FB0769F420813181240F351F2E5FAA
:103F50003F4FEC0139832883228133813B832A83BD
:103F6000E0E0F0E002C0FB01BC01DB0112968D91A4
:103F70009C9113970097B9F79B012E5F3F4F8D914E
:103F80009C911197820F931F409105055091060552
:103F90004817590779F4309729F4109208051092C0
:103FA000070502C01382128222503040309306056A
:0E3FB00020930505DF91CF910895F894FFCF7F
:103FBE002E000000000000000000000102020303BA
:103FCE00030304040404040404040505050505059F
:103FDE00050505050505050505050606060606067D
:103FEE000606060606060606060606060606060663
:103FFE00060606060606060606060707070707074D
:10400E000707070707070707070707070707070732
:10401E000707070707070707070707070707070722
:10402E000707070707070707070707070707070712
:10403E0007070707070707070707080808080808FC
:10404E0008080808080808080808080808080808E2
:10405E0008080808080808080808080808080808D2
:10406E0008080808080808080808080808080808C2
:10407E0008080808080808080808080808080808B2
:10408E0008080808080808080808080808080808A2
:10409E000808080808080808080808080808080892
:1040AE000808080808080808080808080808080882
:1040BE000808080808080808080820000905000074
:1040CE00FF0000000084070609B307C007C107C53B
:1040DE0007C907CD07A908D10715088308000000F6
:1040EE00007E07FE083C173C173C173C173C173C5C
:1040FE00173C173C173C173C1700000000CA0A87F4
:10410E000BD00AD30AD40A00000000BF0A8F0BC5D9
:10411E000AC80AC90A00000000B30A970BB90ABC04
:10412E000ABD0A00000000A70A9F0BAD0AB00AB133
:10413E000A00000000F30AA70BA10AA40AA50A00B0
:10414E00000000980AB20B9E0AB40EF00D0000009B
:10415E00005E0ABA0B640A670A770A0000000020A4
:10416E000AC20B260A290A390A00000000CC09CA25
:10417E000BD209D509F209000000008E09D20B946A
:10418E00099709A709000000005009DA0B560959D2
:10419E00096909000000004409E20B4A094D094E65
:1041AE0009000000003E097F0B240C0000000038BF
:1041BE00095F0B3C173C173C1700000000EB0A6729
:1041CE000B0D0B200DEA0B090B1B0BD60A4F0B53D5
:1041DE000B570B260B000000003209770B3C170023
:1041EE000000006C107E10EF0FF90F3A11FA10FD5F
:1041FE000F3B104C1000000000E90F64103C173C00
:10420E00173C173C173C173C173C1700000000B03A
:10421E0011141207120212FE11F911EE11E911E436
:10422E0011DF11D811D111CA11C511C011BB11B6B0
:10423E001100000000AA110C123C173C173C173C51
:10424E00173C173C173C173C173C173C173C173CC8
:10425E00173C173C173C1700000000871260142211
:10426E0012511235127312000000000E14000000DD
:10427E000079199719B21963196819000000005DC9
:10428E00198F193C173C173C1700000000BC194B46
:10429E001AD519D919DD19F819561A371A3B1A3FBA
:1042AE001A00000000B619431A3C173C173C173C85
:1042BE00173C1700000000A31BF01C1F1C471C4AD4
:1042CE001C6C1C701C721C761C831CA01CBC1C005D
:1042DE000000009D1BE81C3C173C173C173C173C8C
:0C42EE00173C173C173C173C173C17000E
:00000001FF
